:020000040800F2
:1000000060060020190200082102000823020008EF
:10001000250200082702000829020008000000004D
:100020000000000000000000000000002B0200089B
:100030002D020008000000002F0200083102000815
:1000400033020008330200083302000833020008BC
:1000500033020008330200083302000833020008AC
:10006000330200083302000833020008330200089C
:10007000330200083302000833020008330200088C
:1000800033020008330200083302000800000000B9
:100090000000000000000000000000003302000823
:1000A000330200083302000833020008330200085C
:1000B000330200083302000833020008330200084C
:1000C000330200083302000833020008330200083C
:1000D0003302000833020008330200080000000069
:1000E0003302000833020008330200080000000059
:1000F00000000000000000000000000033020008C3
:100100000000000033020008330200083302000838
:1001100000000000000000000000000000000000DF
:1001200033020008330200083302000833020008DB
:100130003302000800000000000000000000000082
:100140000000000000000000000000003302000872
:1001500033020008330200083302000833020008AB
:100160003302000833020008000000000000000015
:10017000000000000000000000000000000000007F
:100180000000000033020008000000000000000032
:100190003302000800F002F800F02EF80AA090E800
:1001A000000C82448344AAF10107DA4501D100F032
:1001B00023F8AFF2090EBAE80F0013F0010F18BFD1
:1001C000FB1A43F001031847E8030000F80300009E
:1001D0000023002400250026103A28BF78C1FBD850
:1001E000520728BF30C148BF0B6070471FB500F0F1
:1001F000D1F91FBD10B510BD00F031F81146FFF761
:10020000F5FF00F0E1F800F04FF803B4FFF7F2FF5C
:1002100003BC00F057F80000094880470948004730
:10022000FEE7FEE7FEE7FEE7FEE7FEE7FEE7FEE7A6
:10023000FEE7FEE704480549054A064B7047000003
:100240007D03000895010008600000206006002082
:1002500060020020600200207047704770477546BA
:1002600000F02CF8AE4605006946534620F0070022
:10027000854618B020B5FFF7DDFFBDE820404FF000
:1002800000064FF000074FF000084FF0000BAC469F
:10029000ACE8C009ACE8C009ACE8C009ACE8C009EA
:1002A00021F007018D46704710B50446AFF300807A
:1002B0002046BDE81040FFF7A8BF00000048704787
:1002C0000000002001491820ABBEFEE72600020016
:1002D0007047000010B500F031F817484FF4C00126
:1002E000302480224FF400030160C0F8FC43026018
:1002F00003600160C0F8FC43026003600160C0F865
:10030000FC433824026003600160C0F8FC4306240B
:10031000026003600160C0F8FC43012402600360D6
:100320000160C0F8FC430260036001600F21C0F867
:10033000FC130260036010BD1804024091484FF6A0
:10034000FF72016841F0060101609048016821F4E4
:100350007C410160016841F4A84101604FF4400113
:100360008161D0F80014914345F25552C0F8001451
:10037000D0F800141143C0F80014704710B50E48AF
:100380000F4CD0F8801041F47001C0F880100B4978
:100390000A6842F001020A6000228A600B6823406A
:1003A0000B60084B4B600B6823F480230B60CA6022
:1003B0004FF00061016010BD08ED00E00038024020
:1003C000FFFFF6FE103000242DE9F84F6D486F4C0A
:1003D0004FF05532016841F0010101606A496250F5
:1003E000016841F0020101604FF0AA402060FFF770
:1003F00071FF674A20204FF4800139234FF4000534
:1004000036264FF032084FF0340C4FF0330E4FF0D9
:10041000290B4FF0530A4FF069096E27A061A161C3
:1004200013608023A361A561A061A16116603026DD
:10043000A361A561A061A161C2F80080A361A5616B
:10044000A061A161C2F800C0A361A561A061A16122
:10045000C2F800E0A361A561A061A1611660382621
:10046000A361A561A061A16116603726A361A561A2
:10047000A061A16116604FF4C006A361A561A661E9
:10048000012616603126A361A561A061A1611660F5
:10049000A361A561A061A161C2F800B0A361A561DB
:1004A000A061A161C2F800A0A361A561A061A161E2
:1004B000C2F80090A361A561A061A16117607127D6
:1004C000A361A561A061A1611060A361A561A061A4
:1004D000A161C2F80080A361A561A061A161C2F819
:1004E00000B0A361A561A061A161C2F800A0A361F1
:1004F000A561A061A161542617607227A361A5615F
:10050000A061A1611760A361A561A061A161C2F8AA
:1005100000E0A361A561A061A161C2F800B0A36180
:10052000A561A061A16116606126A361A561A061BA
:10053000A1611760A361A561A061A161C2F80090EB
:10054000A361A561A061A161C2F800C0A361A5611A
:10055000A061A161C2F800B0A361A561A061A16121
:10056000C2F800A0A361A561A061A1611660A361AA
:10057000A561A0617720A16110600020A361A56141
:10058000BDE8F88F3038024000FCFFFF0004024055
:1005900014080240F1EE100A4FF6FF71C0F2C031AC
:1005A00020EA010040F04070E1EE100A70470000C0
:1005B000C00500080000002060060000D00100080F
:040000050800019559
:00000001FF
